{
  "_format": "hh-sol-artifact-1",
  "contractName": "Token42",
  "sourceName": "contracts/Token42.sol",
  "abi": [
    {
      "inputs": [
        {
          "internalType": "uint256",
          "name": "_supply",
          "type": "uint256"
        }
      ],
      "stateMutability": "nonpayable",
      "type": "constructor"
    },
    {
      "anonymous": false,
      "inputs": [
        {
          "indexed": true,
          "internalType": "address",
          "name": "owner",
          "type": "address"
        },
        {
          "indexed": true,
          "internalType": "address",
          "name": "spender",
          "type": "address"
        },
        {
          "indexed": false,
          "internalType": "uint256",
          "name": "_amount",
          "type": "uint256"
        }
      ],
      "name": "Approval",
      "type": "event"
    },
    {
      "anonymous": false,
      "inputs": [
        {
          "indexed": true,
          "internalType": "address",
          "name": "from",
          "type": "address"
        },
        {
          "indexed": true,
          "internalType": "address",
          "name": "to",
          "type": "address"
        },
        {
          "indexed": false,
          "internalType": "uint256",
          "name": "_amount",
          "type": "uint256"
        }
      ],
      "name": "Transfer",
      "type": "event"
    },
    {
      "inputs": [],
      "name": "Name",
      "outputs": [
        {
          "internalType": "string",
          "name": "",
          "type": "string"
        }
      ],
      "stateMutability": "view",
      "type": "function"
    },
    {
      "inputs": [],
      "name": "Symbol",
      "outputs": [
        {
          "internalType": "string",
          "name": "",
          "type": "string"
        }
      ],
      "stateMutability": "view",
      "type": "function"
    },
    {
      "inputs": [],
      "name": "TotalSupply",
      "outputs": [
        {
          "internalType": "uint256",
          "name": "",
          "type": "uint256"
        }
      ],
      "stateMutability": "view",
      "type": "function"
    },
    {
      "inputs": [
        {
          "internalType": "address",
          "name": "_owner",
          "type": "address"
        },
        {
          "internalType": "address",
          "name": "_spender",
          "type": "address"
        }
      ],
      "name": "allowance",
      "outputs": [
        {
          "internalType": "uint256",
          "name": "",
          "type": "uint256"
        }
      ],
      "stateMutability": "view",
      "type": "function"
    },
    {
      "inputs": [
        {
          "internalType": "address",
          "name": "",
          "type": "address"
        },
        {
          "internalType": "address",
          "name": "",
          "type": "address"
        }
      ],
      "name": "allowances",
      "outputs": [
        {
          "internalType": "uint256",
          "name": "",
          "type": "uint256"
        }
      ],
      "stateMutability": "view",
      "type": "function"
    },
    {
      "inputs": [
        {
          "internalType": "address",
          "name": "_spender",
          "type": "address"
        },
        {
          "internalType": "uint256",
          "name": "_amount",
          "type": "uint256"
        }
      ],
      "name": "approve",
      "outputs": [
        {
          "internalType": "bool",
          "name": "",
          "type": "bool"
        }
      ],
      "stateMutability": "nonpayable",
      "type": "function"
    },
    {
      "inputs": [
        {
          "internalType": "address",
          "name": "_account",
          "type": "address"
        }
      ],
      "name": "balanceOf",
      "outputs": [
        {
          "internalType": "uint256",
          "name": "",
          "type": "uint256"
        }
      ],
      "stateMutability": "view",
      "type": "function"
    },
    {
      "inputs": [
        {
          "internalType": "address",
          "name": "",
          "type": "address"
        }
      ],
      "name": "balances",
      "outputs": [
        {
          "internalType": "uint256",
          "name": "",
          "type": "uint256"
        }
      ],
      "stateMutability": "view",
      "type": "function"
    },
    {
      "inputs": [],
      "name": "creator",
      "outputs": [
        {
          "internalType": "address",
          "name": "",
          "type": "address"
        }
      ],
      "stateMutability": "view",
      "type": "function"
    },
    {
      "inputs": [
        {
          "internalType": "address",
          "name": "_to",
          "type": "address"
        },
        {
          "internalType": "uint256",
          "name": "_amount",
          "type": "uint256"
        }
      ],
      "name": "mint",
      "outputs": [],
      "stateMutability": "nonpayable",
      "type": "function"
    },
    {
      "inputs": [],
      "name": "name",
      "outputs": [
        {
          "internalType": "string",
          "name": "",
          "type": "string"
        }
      ],
      "stateMutability": "view",
      "type": "function"
    },
    {
      "inputs": [],
      "name": "symbol",
      "outputs": [
        {
          "internalType": "string",
          "name": "",
          "type": "string"
        }
      ],
      "stateMutability": "view",
      "type": "function"
    },
    {
      "inputs": [],
      "name": "totalSupply",
      "outputs": [
        {
          "internalType": "uint256",
          "name": "",
          "type": "uint256"
        }
      ],
      "stateMutability": "view",
      "type": "function"
    },
    {
      "inputs": [
        {
          "internalType": "address",
          "name": "_to",
          "type": "address"
        },
        {
          "internalType": "uint256",
          "name": "_amount",
          "type": "uint256"
        }
      ],
      "name": "transfer",
      "outputs": [
        {
          "internalType": "bool",
          "name": "",
          "type": "bool"
        }
      ],
      "stateMutability": "nonpayable",
      "type": "function"
    },
    {
      "inputs": [
        {
          "internalType": "address",
          "name": "_from",
          "type": "address"
        },
        {
          "internalType": "address",
          "name": "_to",
          "type": "address"
        },
        {
          "internalType": "uint256",
          "name": "_amount",
          "type": "uint256"
        }
      ],
      "name": "transferFrom",
      "outputs": [
        {
          "internalType": "bool",
          "name": "",
          "type": "bool"
        }
      ],
      "stateMutability": "nonpayable",
      "type": "function"
    }
  ],
  "bytecode": "0x60806040526040518060400160405280600781526020017f546f6b656e3432000000000000000000000000000000000000000000000000008152506000908161004891906103c0565b506040518060400160405280600381526020017f544b4e00000000000000000000000000000000000000000000000000000000008152506001908161008d91906103c0565b5034801561009a57600080fd5b506040516117ec3803806117ec83398181016040528101906100bc91906104c3565b8060028190555033600560006101000a81548173ffffffffffffffffffffffffffffffffffffffff021916908373ffffffffffffffffffffffffffffffffffffffff1602179055508060036000600560009054906101000a900473ffffffffffffffffffffffffffffffffffffffff1673ffffffffffffffffffffffffffffffffffffffff1673ffffffffffffffffffffffffffffffffffffffff16815260200190815260200160002081905550506104f0565b600081519050919050565b7f4e487b7100000000000000000000000000000000000000000000000000000000600052604160045260246000fd5b7f4e487b7100000000000000000000000000000000000000000000000000000000600052602260045260246000fd5b600060028204905060018216806101f157607f821691505b602082108103610204576102036101aa565b5b50919050565b60008190508160005260206000209050919050565b60006020601f8301049050919050565b600082821b905092915050565b60006008830261026c7fffffffffffffffffffffffffffffffffffffffffffffffffffffffffffffffff8261022f565b610276868361022f565b95508019841693508086168417925050509392505050565b6000819050919050565b6000819050919050565b60006102bd6102b86102b38461028e565b610298565b61028e565b9050919050565b6000819050919050565b6102d7836102a2565b6102eb6102e3826102c4565b84845461023c565b825550505050565b600090565b6103006102f3565b61030b8184846102ce565b505050565b5b8181101561032f576103246000826102f8565b600181019050610311565b5050565b601f821115610374576103458161020a565b61034e8461021f565b8101602085101561035d578190505b6103716103698561021f565b830182610310565b50505b505050565b600082821c905092915050565b600061039760001984600802610379565b1980831691505092915050565b60006103b08383610386565b9150826002028217905092915050565b6103c982610170565b67ffffffffffffffff8111156103e2576103e161017b565b5b6103ec82546101d9565b6103f7828285610333565b600060209050601f83116001811461042a5760008415610418578287015190505b61042285826103a4565b86555061048a565b601f1984166104388661020a565b60005b828110156104605784890151825560018201915060208501945060208101905061043b565b8683101561047d5784890151610479601f891682610386565b8355505b6001600288020188555050505b505050505050565b600080fd5b6104a08161028e565b81146104ab57600080fd5b50565b6000815190506104bd81610497565b92915050565b6000602082840312156104d9576104d8610492565b5b60006104e7848285016104ae565b91505092915050565b6112ed806104ff6000396000f3fe608060405234801561001057600080fd5b50600436106100f55760003560e01c806340c10f191161009757806395d89b411161006657806395d89b411461029c578063a44b47f7146102ba578063a9059cbb146102d8578063dd62ed3e14610308576100f5565b806340c10f191461020257806355b6ed5c1461021e57806370a082311461024e5780638052474d1461027e576100f5565b806318160ddd116100d357806318160ddd1461016657806323b872dd1461018457806327e235e3146101b45780633045aaf3146101e4576100f5565b806302d05d3f146100fa57806306fdde0314610118578063095ea7b314610136575b600080fd5b610102610338565b60405161010f9190610de8565b60405180910390f35b61012061035e565b60405161012d9190610e93565b60405180910390f35b610150600480360381019061014b9190610f1c565b6103f0565b60405161015d9190610f77565b60405180910390f35b61016e6104e2565b60405161017b9190610fa1565b60405180910390f35b61019e60048036038101906101999190610fbc565b6104ec565b6040516101ab9190610f77565b60405180910390f35b6101ce60048036038101906101c9919061100f565b6107de565b6040516101db9190610fa1565b60405180910390f35b6101ec6107f6565b6040516101f99190610e93565b60405180910390f35b61021c60048036038101906102179190610f1c565b610884565b005b6102386004803603810190610233919061103c565b6109ed565b6040516102459190610fa1565b60405180910390f35b6102686004803603810190610263919061100f565b610a12565b6040516102759190610fa1565b60405180910390f35b610286610a5b565b6040516102939190610e93565b60405180910390f35b6102a4610ae9565b6040516102b19190610e93565b60405180910390f35b6102c2610b7b565b6040516102cf9190610fa1565b60405180910390f35b6102f260048036038101906102ed9190610f1c565b610b81565b6040516102ff9190610f77565b60405180910390f35b610322600480360381019061031d919061103c565b610d20565b60405161032f9190610fa1565b60405180910390f35b600560009054906101000a900473ffffffffffffffffffffffffffffffffffffffff1681565b60606000805461036d906110ab565b80601f0160208091040260200160405190810160405280929190818152602001828054610399906110ab565b80156103e65780601f106103bb576101008083540402835291602001916103e6565b820191906000526020600020905b8154815290600101906020018083116103c957829003601f168201915b5050505050905090565b600081600460003373ffffffffffffffffffffffffffffffffffffffff1673ffffffffffffffffffffffffffffffffffffffff16815260200190815260200160002060008573ffffffffffffffffffffffffffffffffffffffff1673ffffffffffffffffffffffffffffffffffffffff168152602001908152602001600020819055508273ffffffffffffffffffffffffffffffffffffffff163373ffffffffffffffffffffffffffffffffffffffff167f8c5be1e5ebec7d5bd14f71427d1e84f3dd0314c0f7b2291e5b200ac8c7c3b925846040516104d09190610fa1565b60405180910390a36001905092915050565b6000600254905090565b600081600360008673ffffffffffffffffffffffffffffffffffffffff1673ffffffffffffffffffffffffffffffffffffffff168152602001908152602001600020541015610570576040517f08c379a000000000000000000000000000000000000000000000000000000000815260040161056790611128565b60405180910390fd5b81600460008673ffffffffffffffffffffffffffffffffffffffff1673ffffffffffffffffffffffffffffffffffffffff16815260200190815260200160002060003373ffffffffffffffffffffffffffffffffffffffff1673ffffffffffffffffffffffffffffffffffffffff16815260200190815260200160002054101561062f576040517f08c379a000000000000000000000000000000000000000000000000000000000815260040161062690611194565b60405180910390fd5b81600360008673ffffffffffffffffffffffffffffffffffffffff1673ffffffffffffffffffffffffffffffffffffffff168152602001908152602001600020600082825461067e91906111e3565b9250508190555081600460008673ffffffffffffffffffffffffffffffffffffffff1673ffffffffffffffffffffffffffffffffffffffff16815260200190815260200160002060003373ffffffffffffffffffffffffffffffffffffffff1673ffffffffffffffffffffffffffffffffffffffff168152602001908152602001600020600082825461071191906111e3565b9250508190555081600360008573ffffffffffffffffffffffffffffffffffffffff1673ffffffffffffffffffffffffffffffffffffffff16815260200190815260200160002060008282546107679190611217565b925050819055508273ffffffffffffffffffffffffffffffffffffffff168473ffffffffffffffffffffffffffffffffffffffff167fddf252ad1be2c89b69c2b068fc378daa952ba7f163c4a11628f55a4df523b3ef846040516107cb9190610fa1565b60405180910390a3600190509392505050565b60036020528060005260406000206000915090505481565b60018054610803906110ab565b80601f016020809104026020016040519081016040528092919081815260200182805461082f906110ab565b801561087c5780601f106108515761010080835404028352916020019161087c565b820191906000526020600020905b81548152906001019060200180831161085f57829003601f168201915b505050505081565b600560009054906101000a900473ffffffffffffffffffffffffffffffffffffffff1673ffffffffffffffffffffffffffffffffffffffff163373ffffffffffffffffffffffffffffffffffffffff1614610914576040517f08c379a000000000000000000000000000000000000000000000000000000000815260040161090b90611297565b60405180910390fd5b8173ffffffffffffffffffffffffffffffffffffffff16600073ffffffffffffffffffffffffffffffffffffffff167fddf252ad1be2c89b69c2b068fc378daa952ba7f163c4a11628f55a4df523b3ef836040516109729190610fa1565b60405180910390a3806002600082825461098c9190611217565b9250508190555080600360008473ffffffffffffffffffffffffffffffffffffffff1673ffffffffffffffffffffffffffffffffffffffff16815260200190815260200160002060008282546109e29190611217565b925050819055505050565b6004602052816000526040600020602052806000526040600020600091509150505481565b6000600360008373ffffffffffffffffffffffffffffffffffffffff1673ffffffffffffffffffffffffffffffffffffffff168152602001908152602001600020549050919050565b60008054610a68906110ab565b80601f0160208091040260200160405190810160405280929190818152602001828054610a94906110ab565b8015610ae15780601f10610ab657610100808354040283529160200191610ae1565b820191906000526020600020905b815481529060010190602001808311610ac457829003601f168201915b505050505081565b606060018054610af8906110ab565b80601f0160208091040260200160405190810160405280929190818152602001828054610b24906110ab565b8015610b715780601f10610b4657610100808354040283529160200191610b71565b820191906000526020600020905b815481529060010190602001808311610b5457829003601f168201915b5050505050905090565b60025481565b600081600360003373ffffffffffffffffffffffffffffffffffffffff1673ffffffffffffffffffffffffffffffffffffffff168152602001908152602001600020541015610c05576040517f08c379a0000000000000000000000000000000000000000000000000000000008152600401610bfc90611128565b60405180910390fd5b81600360003373ffffffffffffffffffffffffffffffffffffffff1673ffffffffffffffffffffffffffffffffffffffff1681526020019081526020016000206000828254610c5491906111e3565b9250508190555081600360008573ffffffffffffffffffffffffffffffffffffffff1673ffffffffffffffffffffffffffffffffffffffff1681526020019081526020016000206000828254610caa9190611217565b925050819055508273ffffffffffffffffffffffffffffffffffffffff163373ffffffffffffffffffffffffffffffffffffffff167fddf252ad1be2c89b69c2b068fc378daa952ba7f163c4a11628f55a4df523b3ef84604051610d0e9190610fa1565b60405180910390a36001905092915050565b6000600460008473ffffffffffffffffffffffffffffffffffffffff1673ffffffffffffffffffffffffffffffffffffffff16815260200190815260200160002060008373ffffffffffffffffffffffffffffffffffffffff1673ffffffffffffffffffffffffffffffffffffffff16815260200190815260200160002054905092915050565b600073ffffffffffffffffffffffffffffffffffffffff82169050919050565b6000610dd282610da7565b9050919050565b610de281610dc7565b82525050565b6000602082019050610dfd6000830184610dd9565b92915050565b600081519050919050565b600082825260208201905092915050565b60005b83811015610e3d578082015181840152602081019050610e22565b60008484015250505050565b6000601f19601f8301169050919050565b6000610e6582610e03565b610e6f8185610e0e565b9350610e7f818560208601610e1f565b610e8881610e49565b840191505092915050565b60006020820190508181036000830152610ead8184610e5a565b905092915050565b600080fd5b610ec381610dc7565b8114610ece57600080fd5b50565b600081359050610ee081610eba565b92915050565b6000819050919050565b610ef981610ee6565b8114610f0457600080fd5b50565b600081359050610f1681610ef0565b92915050565b60008060408385031215610f3357610f32610eb5565b5b6000610f4185828601610ed1565b9250506020610f5285828601610f07565b9150509250929050565b60008115159050919050565b610f7181610f5c565b82525050565b6000602082019050610f8c6000830184610f68565b92915050565b610f9b81610ee6565b82525050565b6000602082019050610fb66000830184610f92565b92915050565b600080600060608486031215610fd557610fd4610eb5565b5b6000610fe386828701610ed1565b9350506020610ff486828701610ed1565b925050604061100586828701610f07565b9150509250925092565b60006020828403121561102557611024610eb5565b5b600061103384828501610ed1565b91505092915050565b6000806040838503121561105357611052610eb5565b5b600061106185828601610ed1565b925050602061107285828601610ed1565b9150509250929050565b7f4e487b7100000000000000000000000000000000000000000000000000000000600052602260045260246000fd5b600060028204905060018216806110c357607f821691505b6020821081036110d6576110d561107c565b5b50919050565b7f496e73756666696369656e742062616c616e6365000000000000000000000000600082015250565b6000611112601483610e0e565b915061111d826110dc565b602082019050919050565b6000602082019050818103600083015261114181611105565b9050919050565b7f4e6f7420617070726f76656420666f72207468617420616d6f756e7400000000600082015250565b600061117e601c83610e0e565b915061118982611148565b602082019050919050565b600060208201905081810360008301526111ad81611171565b9050919050565b7f4e487b7100000000000000000000000000000000000000000000000000000000600052601160045260246000fd5b60006111ee82610ee6565b91506111f983610ee6565b9250828203905081811115611211576112106111b4565b5b92915050565b600061122282610ee6565b915061122d83610ee6565b9250828201905080821115611245576112446111b4565b5b92915050565b7f4e6f74207468652063726561746f720000000000000000000000000000000000600082015250565b6000611281600f83610e0e565b915061128c8261124b565b602082019050919050565b600060208201905081810360008301526112b081611274565b905091905056fea264697066735822122064f390d31d163da4f5894754c1c744683824738732c2ced34ae975f7bfd5ab6364736f6c634300081c0033",
  "linkReferences": {},
  "deployedLinkReferences": {}
}